:100000000C9418240C9449240C9449240C944924ED
:100010000C9449240C9449240C9449240C944924AC
:100020000C9449240C9449240C9449240C9449249C
:100030000C9449240C9449240C9449240C9449248C
:100040000C9449240C9435BA0C9449240C944924FA
:100050000C9449240C9449240C94B1C60C94536319
:100060000C9449240C942A600C9449240C9449243F
:100070000C9449240C9449240C9449240C9449244C
:100080000C9449240C9449240C9449240C9449243C
:100090000C9449240C9449240C9449240C9449242C
:1000A0000C9449240C9449240C9449240C9449241C
:1000B0000C9449240C9449240C9449240C9449240C
:1000C0000C9449240C9449240C9449240C944924FC
:1000D0000C9449240C9449240C9449240C944924EC
:1000E0000C944924B64EB94EA84EAC4EB24EF04ECA
:1000F000BD4EC14EC74ECB4ECF4ED54ED94EDD4E26
:10010000F04EE34EE74EEB4E6F62746279628362AB
:100110008D62066397629F62A762B162BB62C5622D
:10012000D462DE620663E862F262FC620BFF62FF89
:1001300010010E010C0116012201084AD73B3BCEEB
:10014000016E84BCBFFDC12F3D6C74319ABD5683D6
:100150003DDA3D00C77F11BED9E4BB4C3E916BAA8E
:10016000AABE000000803F05A84CCDB2D44EB938DD
:1001700036A9020C50B9918688083CA6AAAA2ABEC4
:10018000000000803F08000000BE922449123EABF0
:10019000AAAA2ABECDCCCC4C3E00000080BEABAAA1
:1001A000AAAA3E00000000BF000000803F0000003F
:1001B0000000084178D3BB4387D1133D190E3CC3DF
:1001C000BD4282AD2B3E68EC8276BED98FE1A93E5E
:1001D0004C80EFFFBE01C4FF7F3F0000000000071E
:1001E000634236B79BD8A71A39685618AEBAAB55D2
:1001F0008C1D3CB7CC5763BD6DEDFD753EF6177297
:1002000031BF000000803F000D94A5210D9499207E
:100210000D940F4D0D9416590D9422040D94DC028B
:100220000D9485000D949C230D94294B0D942D0461
:100230000D94891F0D94622B0D948D1F0D94A82190
:100240000D94AA210D9430040D949E584E414E49B0
:100250004E495459494E46CDCCCC3D0AD7233C1784
:10026000B7D13877CC2B329595E6241FB14F0A00D1
:100270000020410000C84200401C4620BCBE4CCAC1
:100280001B0E5AAEC59D7400407A10F35A00A0723E
:100290004E18090010A5D4E80000E87648170000C1
:1002A000E40B54020000CA9A3B000000E1F505008F
:1002B0000080969800000040420F000000A08601D8
:1002C000000000102700000000E8030000000064A8
:1002D00000000000000A0000000000010000000013
:1002E000002C76D888DC674F0823DFC1DFAE59E1E8
:1002F000B1B796E5E3E453C63AE651997696E8E657
:10030000C28426EB898C9B62ED407C6FFCEFBC9C29
:100310009F40F2BAA56FA5F490055A2AF75C936B3B
:100320006CF9676DC11BFCE0E40D47FEF520E6B5F6
:1003300000D0ED902E0300943577050080841E08D0
:100340000000204E0A000000C80C333333330F98EE
:100350006E12831141EF8D2114893BE65516CFFEB5
:10036000E6DB18D1844B381BF77C1D901DA4BBE441
:1003700024203284725E228100C9F124ECA1E53D83
:10038000274C4556454C494E4700434F4D4D554E21
:1003900049434154494F4E0044525952554E00452D
:1003A00052524F525300494E464F004543484F006A
:1003B00047322F47332062616420706172616D653E
:1003C000746572730A004D65736820706F696E748E
:1003D0002063616E6E6F74206265207265736F6C4E
:1003E0007665640A00436F72652069332072656127
:1003F00064792E00526573756D696E67207072693D
:100400006E7400436C69636B20746F207265737542
:100410006D652E2E2E005344207072696E74696EC5
:1004200067206279746520004E6F742053442070F9
:1004300072696E74696E670A005072696E74207416
:10044000696D653A20006F6E2E006F66662E00554E
:10045000424C20446562756720466C616720747564
:10046000726E656420006D0046696C616D656E7426
:1004700020757365643A200053746174733A2000E8
:100480002C204C6F6E67657374206A6F623A20008F
:10049000546F74616C2074696D653A200053746107
:1004A00074733A20002C204661696C65643A200020
:1004B0002C2046696E69736865643A200050726941
:1004C0006E74733A200053746174733A20004525AA
:1004D0006920257300436F7265206933207265615E
:1004E00064792E00AB03A6039F0398038A0381035C
:1004F0006F66660044454255473A004B494C4C45AF
:10050000442E20006F6B0048656174696E6720643B
:100510006F6E652E0020573A00452569202573002F
:10052000436F72652069332072656164792E0042E1
:10053000656420646F6E652E0020573A0042656442
:100540002048656174696E672E00436F726520698B
:10055000332072656164792E0050533A310A00509D
:10056000533A300A00436F7265206933204F666644
:100570002E004361703A454D455247454E43595F01
:100580005041525345523A300A004361703A434158
:1005900053455F4C494748545F4252494748544E7F
:1005A0004553533A300A004361703A544F47474C21
:1005B000455F4C49474854533A300A004361703A0A
:1005C000534F4654574152455F504F5745523A3169
:1005D0000A004361703A4C4556454C494E475F44CA
:1005E0004154413A310A004361703A5A5F50524FC8
:1005F00042453A310A004361703A4155544F4C45E7
:1006000056454C3A310A004361703A5052494E54B3
:100610005F4A4F423A310A004361703A50524F47A5
:10062000524553533A300A004361703A4155544F92
:100630005245504F52545F54454D503A310A004391
:1006400061703A454550524F4D3A310A0046495281
:100650004D574152455F4E414D453A4D61726C696F
:100660006E20312E312E3420284769746875622936
:1006700020534F555243455F434F44455F55524CBD
:100680003A68747470733A2F2F6769746875622EB4
:10069000636F6D2F4D61726C696E4669726D776123
:1006A00072652F4D61726C696E2050524F544F43EA
:1006B0004F4C5F56455253494F4E3A312E30204DE4
:1006C000414348494E455F545950453A436F72651E
:1006D0002069332045585452554445525F434F5585
:1006E0004E543A3120555549443A63656465326148
:1006F00032662D343161322D343734382D39623140
:10070000322D6335356336326633363766660A0016
:100710007A5F70726F62653A20007A5F6D696E3A37
:100720002000795F6D696E3A2000785F6D696E3ADE
:1007300020005265706F7274696E6720656E647315
:10074000746F70207374617475730A004D313435A1
:1007500020533C696E6465783E206F7574206F6627
:100760002072616E67652028302D31290A0053659B
:100770007474696E672054726176656C204163639E
:10078000656C65726174696F6E3A200053657474AC
:10079000696E67205265747261637420416363659A
:1007A0006C65726174696F6E3A2000536574746988
:1007B0006E67205072696E7420416363656C657268
:1007C0006174696F6E3A200053657474696E6720B6
:1007D0005072696E7420616E642054726176656C2B
:1007E00020416363656C65726174696F6E3A2000C5
:1007F000205A00205900580020204D61783A2000EE
:10080000205A00205900580020204D696E3A2000DF
:100810004F6E20004F666600536F667420656E64ED
:1008200073746F70733A2000000136372603FF3C63
:100830003D3802FF2E303E13FF120B0907FFFF0663
:100840001A181CFFFF094408FF43FFFFFFFFFFFFCB
:1008500020643A0020693A0020703A0043290A00D7
:1008600061626C656420286D696E2074656D70200E
:1008700000436F6C642065787472756465732061E1
:100880007265200023646566696E652020444546D4
:1008900041554C545F4B64200023646566696E6566
:1008A000202044454641554C545F4B692000236449
:1008B0006566696E65202044454641554C545F4B42
:1008C000702000504944204175746F74756E652026
:1008D00066696E6973686564212050757420746858
:1008E00065206C617374204B702C204B6920616E05
:1008F00064204B6420636F6E7374616E7473206642
:10090000726F6D2062656C6F7720696E746F204323
:100910006F6E66696775726174696F6E2E680A0022
:10092000504944204175746F74756E652066616925
:100930006C6564212074696D656F75740A00504997
:1009400044204175746F74756E65206661696C65CD
:1009500064212054656D70657261747572652074D0
:100960006F6F20686967680A00204B643A20002096
:100970004B693A2000204B703A20000A20436C61FA
:100980007373696320504944200A002054753A204B
:1009900000204B753A2000206D61783A2000206DD0
:1009A000696E3A200020643A200020626961733A3F
:1009B00020004163746976652045787472756465BA
:1009C000723A20003C3C3C2067636F64655F540AC8
:1009D00000203A2041465445520A00202063757297
:1009E00072656E745F706F736974696F6E3D00201D
:1009F0003A204245464F52450A00202063757272E4
:100A0000656E745F706F736974696F6E3D003E3E12
:100A10003E2067636F64655F542800556E6B6E6F90
:100A2000776E20636F6D6D616E643A2022003F53D4
:100A3000706563696669656420582C5920636F6F1F
:100A40007264696E617465206F7574206F662062D0
:100A50006F756E64732E0A003F28522965706561B8
:100A6000742076616C7565206E6F7420706C617592
:100A70007369626C653B206D7573742062652061DB
:100A800074206C6561737420312E0A003F537065C9
:100A9000636966696564206E6F7A7A6C6520746537
:100AA0006D7065726174757265206E6F7420706C04
:100AB00061757369626C652E0A003F5370656369E6
:100AC000666965642066696C616D656E7420736922
:100AD0007A65206E6F7420706C61757369626C65E5
:100AE0002E0A003F53706563696669656420707201
:100AF000696D65206C656E677468206E6F74207018
:100B00006C61757369626C652E0A003F5370656392
:100B10006966696564206E6F7A7A6C652073697A9C
:100B200065206E6F7420706C61757369626C652EE0
:100B30000A003F5370656369666965642052657495
:100B400072616374696F6E204D756C7469706C6945
:100B50006572206E6F7420706C61757369626C656C
:100B60002E0A003F52657472616374696F6E204D86
:100B7000756C7469706C696572206D757374206230
:100B800065207370656369666965642E0A003F536A
:100B90007065636966696564206C61796572206857
:100BA0006569676874206E6F7420706C6175736915
:100BB000626C652E0A003F537065636966696564FF
:100BC000206265642074656D70657261747572650C
:100BD000206E6F7420706C61757369626C652E0A8B
:100BE00000436F6E6E656374696E6720766572741C
:100BF0006963616C206C696E652E002C2065793DFF
:100C00000029202D3E202865783D002C2073793D59
:100C10000020436F6E6E656374696E672077697438
:100C20006820766572746963616C206C696E6520FA
:100C30002873783D002C2065793D0029202D3E2029
:100C40002865783D002C2073793D0020436F6E6E3F
:100C5000656374696E67207769746820686F72696C
:100C60007A6F6E74616C206C696E65202873783DB4
:100C700000446F6E65205072696D696E6700446F45
:100C80006E65205072696D696E6700557365722DCF
:100C9000436F6E74726F6C6C6564205072696D6521
:100CA000004669786564204C656E677468205072F0
:100CB000696D652E004732362048656174696E673C
:100CC000204E6F7A7A6C652E004732362048656177
:100CD00074696E67204265642E004C656176696EAA
:100CE0006720473236002C2079693D0020202044BF
:100CF0006F696E6720636972636C652061743A2066
:100D00002878693D0047323620636F6D6D616E64EF
:100D100020737461727465642E2020576169746950
:100D20006E6720666F72206865617465722873292A
:100D30002E0A0000002100240027002A002D003088
:100D400000330001010000040107010A0100002234
:100D500000250028002B002E003100340002010085
:100D600000050108010B01000020002300260029D6
:100D7000002C002F003200000100000301060109D1
:100D80000105050505070508080808020202020A10
:100D90000A0808040404040101010101010101031E
:100DA00003030303030303040707070C0C0C0C0CD9
:100DB0000C0C0C0202020206060606060606060BCC
:100DC0000B0B0B0B0B0B0B01021020200808102043
:100DD00040102040800201020108040201010204C7
:100DE0000810204080804020100804020180040286
:100DF00001804020100804020108040201010204DD
:100E00000810204080010204081020408000000AE1
:100E10000B02090C0D0E080703040100000000007E
:100E200000000000000000000000000000000000C2
:100E3000000000000000000000121110000000007F
:100E400000000000000000000000000000000000A2
:100E50000000004B494C4C45442E2000202D2049D9
:100E60006E76616C69642065787472756465722051
:100E70006E756D62657220210A002D2D2D2D2D2D90
:100E8000007C4D61726C696E7C002D2D2D2D2D2DF9
:100E900000687474703A2F2F7777772E70786D61B1
:100EA0006C696F6E2E636F6D2F0020312E312E34E2
:100EB0000000000000010204040000001C1C0C04DF
:100EC00004040201000000000004081000000000FB
:100ED000002020506C616E6E6572427566666572A8
:100EE00042797465733A20002046726565204D652D
:100EF0006D6F72793A2000436F6D70696C65643A6A
:100F00002041756720333020323031370A00207C91
:100F100020417574686F723A2028687474703A2F93
:100F20002F7777772E70786D616C696F6E2E636F97
:100F30006D2F290A00323031372D30372D303420D3
:100F400031323A303000204C617374205570646146
:100F50007465643A2000312E312E340A004D6172DE
:100F60006C696E0020536F667477617265205265FC
:100F70007365740A00205761746368646F67205258
:100F8000657365740A002042726F776E206F757406
:100F90002052657365740A002045787465726E612D
:100FA0006C2052657365740A00506F7765725570D6
:100FB0000A0073746172740A006572726F7220772E
:100FC000726974696E6720746F2066696C650A00C7
:100FD000456E6473746F707320256320256320252C
:100FE000632025630020503A00205A3A0020593AE5
:100FF0000020583A00656E6473746F7073206869DE
:10100000743A2000446F6E6520736176696E6720C4
:1010100066696C652E0A004D32390046696C2E20D7
:101020004469612E0046696C2E204469612E004F90
:101030006666004F6E20004520696E206D6D33009E
:10104000436F6E74726F6C0043616E6E6F742065D7
:101050006E746572207375626469723A2000052EA1
:101060002E004D61696E00696E206D6F76655F744C
:101070006F282920666565645F76616C75652066FA
:101080006F722058593A004C656176696E67204747
:1010900032360052656C6561736520627574746FD9
:1010A0006E004D6573682056616C69646174696F88
:1010B0006E2053746F707065642E0025697300256F
:1010C000696D20256973002569682025696D2025D3
:1010D000697300256964202569682025696D2025CC
:1010E00069730025697920256964202569682025B0
:1010F000696D20256973002C20002C2000203A20E7
:1011000073796E635F706C616E5F706F7369746921
:101110006F6E0A00202063757272656E745F706F67
:10112000736974696F6E3D004E6F204C696E652067
:101130004E756D62657220776974682063686563B7
:101140006B73756D2C204C617374204C696E653A1D
:1011500020004B494C4C45442E200053544F5050D6
:1011600045442E20005072696E7465722073746F4E
:10117000707065642064756520746F206572726F8D
:1011800072732E2046697820746865206572726FCC
:101190007220616E6420757365204D393939207471
:1011A0006F20726573746172742E202854656D709F
:1011B00065726174757265206973207265736574F8
:1011C0002E205365742069742061667465722072E4
:1011D000657374617274696E67290A004E6F2043EB
:1011E0006865636B73756D2077697468206C696ED0
:1011F00065206E756D6265722C204C617374204C95
:10120000696E653A2000636865636B73756D206D68
:1012100069736D617463682C204C617374204C6930
:101220006E653A20004C696E65204E756D62657280
:10123000206973206E6F74204C617374204C696E4A
:1012400065204E756D6265722B312C204C61737474
:10125000204C696E653A20004D313130004D3331FC
:10126000004D383420582059205A2045005344203E
:1012700072656164206572726F720A00446F6E65F8
:10128000207072696E74696E672066696C650A0009
:1012900020496E76616C6964206578747275646546
:1012A00072200000000000000000000000000000AC
:1012B000005C4300005C4300005C430A20736F66DF
:1012C000745F656E6473746F705F6D6178203D202C
:1012D000000A20736F66745F656E6473746F705F6D
:1012E0006D696E203D20000A20706F736974696F0C
:1012F0006E5F7368696674203D20002061786973B1
:101300003A0A20686F6D655F6F6666736574203D8D
:101310002000466F722000436172642072656D6F19
:10132000766564004361726420696E7365727465EA
:10133000640037205361766520426564204D6573F3
:101340006800362046696E652054756E6520416CD4
:101350006C0047323920503420523939392054003A
:10136000352056616C6964617465204D6573680051
:10137000342046696E652054756E6520416C6C00A2
:101380004732392050342052393939205400332023
:1013900056616C6964617465204D65736800322024
:1013A000536D6172742046696C6C2D696E0031203A
:1013B0004275696C6420436F6C64204D65736800EE
:1013C0004732380A47323920503100556E69666914
:1013D000656420426564204C6576656C696E6700C3
:1013E0004F75747075742055424C20496E666F00BD
:1013F00047323920570055424C20546F6F6C7300B0
:101400004F7574707574204D657368204D61700060
:101410004D6573682053746F72616765005374651E
:10142000702D42792D537465702055424C004465EF
:1014300061637469766174652055424C00473239A6
:1014400020440041637469766174652055424C0004
:101450004732392041004D616E75616C6C792042D4
:1014600075696C64204D65736800473239204939CD
:1014700039390A4732392050322042205430005046
:10148000726570617265004D343238004D3830003D
:1014900053776974636820706F776572206F666632
:1014A000004D3831005072656865617420414253C7
:1014B000005072656865617420504C4100436F6F45
:1014C0006C646F776E0053776974636820706F7710
:1014D0006572206F6E0044697361626C652073747D
:1014E000657070657273004D383400536574206800
:1014F0006F6D65206F66667365747300556E6966FF
:1015000069656420426564204C6576656C696E6728
:10151000004175746F20686F6D6500473238004D6B
:101520006F76652061786973004D61696E004D6F5B
:1015300076652058004D6F76652059004D6F7665B1
:10154000205A004578747275646572004D6F766537
:1015500020302E316D6D004D6F766520316D6D0040
:101560004D6F76652031306D6D004D6F7665206171
:10157000786973004578747275646572004D6F7692
:1015800065205A004D6F76652059004D6F766520B5
:101590005800473239205031004D31303920532521
:1015A00069004D31393020532569004732380042F7
:1015B00075696C6420437573746F6D204D65736835
:1015C000004265642054656D700042656420546576
:1015D0006D70004265642054656D7000486F7465DD
:1015E0006E642054656D7000486F74656E6420549D
:1015F000656D7000486F74656E642054656D700091
:101600004275696C64204D657368002E256900473A
:1016100032392050362D00496E666F207363726533
:10162000656E0041646A757374204D657368204867
:1016300065696768740048656967687420416D6F03
:10164000756E740048656967687420416D6F756ECA
:10165000740048656967687420416D6F756E740029
:1016600045646974204D65736800496E666F207328
:10167000637265656E0041646A757374204D6573AD
:1016800068204865696768740046696E652054750E
:101690006E6520436C6F7365737400473239205058
:1016A0003420540046696E652054756E6520416C87
:1016B0006C004732392050342052393939205400D7
:1016C00055424C20546F6F6C73004732380A4732D2
:1016D0003620432042256920482569205000496E64
:1016E000666F2073637265656E0056616C69646134
:1016F000746520437573746F6D204D657368005673
:10170000616C696461746520414253204D65736862
:10171000004732380A4732362043204231313020E8
:101720004832323520500056616C6964617465201E
:10173000504C41204D657368004732380A473236B5
:101740002043204234302048313930205000554267
:101750004C20546F6F6C7300473239204A25690062
:101760004C6576656C204D6573680053696465202F
:10177000506F696E7473005369646520506F696EB1
:101780007473005369646520506F696E74730055FB
:10179000424C20546F6F6C7300496E666F20736308
:1017A0007265656E0047726964204D657368204CF0
:1017B0006576656C696E6700332D506F696E7420B5
:1017C0004C6576656C696E6700473239204A300097
:1017D00055424C20546F6F6C7300473239205033A0
:1017E00020543000473239205033205220432E25D8
:1017F00069004D616E75616C2046696C6C2D696E77
:1018000000473239205032204220543000536D615D
:1018100072742046696C6C2D696E00496E666F208B
:1018200073637265656E0046696C6C2D696E204D40
:101830006573680046696C6C2D696E20416D6F752B
:101840006E740046696C6C2D696E20416D6F756E0B
:10185000740046696C6C2D696E20416D6F756E74F5
:10186000004275696C64204D65736800565472615E
:1018700076206D696E005654726176206D696E0037
:101880005654726176206D696E00566D696E005611
:101890006D696E00566D696E00566D617820450069
:1018A000566D6178204500566D6178204500566D73
:1018B0006178205A00566D6178205A00566D617823
:1018C000205A00566D6178205900566D6178205974
:1018D00000566D6178205900566D61782058005689
:1018E0006D6178205800566D61782058004D6F74F6
:1018F000696F6E00416D6178204500416D6178200F
:101900004500416D6178205A00416D6178205A0090
:10191000416D6178205900416D6178205900416D19
:101920006178205800416D6178205800412D747213
:101930006176656C00412D74726176656C00412D95
:101940007265747261637400412D726574726163B3
:101950007400416363656C00416363656C004D6FA7
:1019600074696F6E0056652D6A65726B0056652D41
:101970006A65726B0056652D6A65726B00567A2D2A
:101980006A65726B00567A2D6A65726B0056792D06
:101990006A65726B0056792D6A65726B0056792DF7
:1019A0006A65726B0056782D6A65726B0056782DE9
:1019B0006A65726B0056782D6A65726B004D6F74A4
:1019C000696F6E004573746570732F6D6D0045739C
:1019D000746570732F6D6D005A73746570732F6D1D
:1019E0006D005A73746570732F6D6D005973746553
:1019F00070732F6D6D005973746570732F6D6D006A
:101A00005873746570732F6D6D00587374657073BF
:101A10002F6D6D004D6F74696F6E00537465707338
:101A20002F6D6D004A65726B00416363656C657272
:101A30006174696F6E0056656C6F63697479005AE2
:101A4000204F6666736574005A204F66667365742E
:101A500000436F6E74726F6C004D65736820696E21
:101A600076616C6964617465642E0A00496E666F04
:101A70002073637265656E00496E76616C6964619E
:101A8000746520436C6F7365737400473239204965
:101A900000496E76616C696461746520416C6C000C
:101AA000436F6E74696E756520426564204D657381
:101AB000680047323920503120430046696C6C2D54
:101AC000696E204D657368004275696C6420436FD0
:101AD0006C64204D657368004732380A47323920FC
:101AE0005031004275696C6420437573746F6D20CA
:101AF0004D657368004275696C6420414253204D06
:101B0000657368004732380A4D313930205331311E
:101B1000300A4D31303920533232350A47323920BC
:101B200050310A4D3130342053300A4D3134302099
:101B30005330004275696C6420504C41204D6573F0
:101B400068004732380A4D313930205334300A4D5D
:101B500031303920533139300A4732392050310A77
:101B60004D3130342053300A4D3134302053300061
:101B700055424C20546F6F6C730047323920532507
:101B80006900473239204C2569005361766520424F
:101B90006564204D657368004C6F61642042656424
:101BA000204D657368004D656D6F727920536C6FC1
:101BB00074004D656D6F727920536C6F74004D65C4
:101BC0006D6F727920536C6F7400556E696669652C
:101BD0006420426564204C6576656C696E67000020
:101BE0000000000000001F1F00000000000000486F
:101BF0006F6D696E672058595A004732392050344A
:101C000020582573205925732052256900202D2D39
:101C10002D2D2D00000020410000DC420000524329
:101C200000009B430000CD430000FF4300801844A8
:101C30000080314400804A440080634400807C443A
:101C400000C08A440040974400C0A3440040B04410
:101C500000C0BC44000020410000DC4200005243B0
:101C600000009B430000CD430000FF430080184468
:101C70000080314400804A440080634400807C44FA
:101C800000C08A440040974400C0A3440040B044D0
:101C900000C0BC44473238004F7574707574204DD5
:101CA000657368204D6170004F6666205072696EE2
:101CB000746572204261636B75700047323920533E
:101CC0002D31004F757470757420666F7220435308
:101CD0005600473239205431004F757470757420A6
:101CE000666F7220486F7374004732392054300099
:101CF000556E696669656420426564204C65766549
:101D00006C696E67004D657368204C6576656C691B
:101D10006E670045646974204D6573680056616C98
:101D20006964617465204D657368004275696C640F
:101D3000204D65736800556E69666965642042656B
:101D400064204C6576656C696E670053442063615E
:101D50007264206F6B0A006F70656E526F6F742033
:101D60006661696C65640A00766F6C756D652E69D5
:101D70006E6974206661696C65640A005344206969
:101D80006E6974206661696C0A006175746F2569FB
:101D90002E67004D3234004D3233202573005772C8
:101DA0006974696E6720746F2066696C653A2000FB
:101DB0006F70656E206661696C65642C2046696C85
:101DC000653A20006F70656E206661696C65642CF1
:101DD0002046696C653A200046696C652073656C25
:101DE00065637465640A002053697A653A20004689
:101DF000696C65206F70656E65643A20006F706570
:101E00006E206661696C65642C2046696C653A20B9
:101E1000002066696C653A20004E6F772000222012
:101E2000706F73002220706172656E743A220053E5
:101E30005542524F5554494E452043414C4C207415
:101E400061726765743A22004B494C4C45442E2020
:101E500000747279696E6720746F2063616C6C2006
:101E60007375622D67636F64652066696C657320A6
:101E70007769746820746F6F206D616E79206C656E
:101E800076656C732E204D4158206C6576656C200C
:101E900069733A004572726F723A004578747275D0
:101EA000646572004D6F7665205A004D6F7665202F
:101EB00059004D6F766520580050726570617265EB
:101EC000004D3530320A4D35303000526573746F35
:101ED0007265206661696C73616665004C6F616450
:101EE0002073657474696E677300496E6974696103
:101EF0006C697A6520454550524F4D0053746F729E
:101F0000652073657474696E67730046696C616DF2
:101F1000656E74004D6F74696F6E0054656D706509
:101F2000726174757265004D61696E00507265680A
:101F30006561742041425320636F6E660050726584
:101F40006865617420504C4120636F6E6600504993
:101F5000442D44005049442D44005049442D49002B
:101F60005049442D49005049442D50005049442DBA
:101F70005000200220466163740020022046616305
:101F800074002002204D6178002002204D6178000D
:101F90002002204D6178002002204D696E00200251
:101FA000204D696E002002204D696E004F6666006C
:101FB0004F6E20004175746F74656D700046616EE0
:101FC0002073706565640046616E2073706565649A
:101FD0000046616E2073706565640042656400426E
:101FE0006564004E6F7A7A6C65004E6F7A7A6C6524
:101FF00000436F6E74726F6C0053746F7265207360
:10200000657474696E6773004265640042656400BC
:10201000426564004E6F7A7A6C65004E6F7A7A6C16
:1020200065004E6F7A7A6C650046616E207370654C
:1020300065640046616E2073706565640046616E7C
:102040002073706565640054656D706572617475A8
:102050007265004D657368206C6F6164656420660D
:10206000726F6D20736C6F74200072657365745F9E
:102070006265645F6C6576656C0A004861726463D2
:102080006F6465642044656661756C742053657483
:1020900074696E6773204C6F616465640A00D007D1
:1020A0000000D0070000640000008813000000005A
:1020B000FA430000FA43000040400000484200009C
:1020C000A0420000A042000048440000C842202076
:1020D0004D383531205A005A2D50726F6265204FAD
:1020E000666673657420286D6D293A0A00204400E5
:1020F00020490020204D33303120500050494420E9
:1021000073657474696E67733A0A00204600204252
:102110000020480020204D3134352053004D61749B
:10212000657269616C206865617475702070617298
:10213000616D65746572733A0A00206D6573686538
:10214000732E0A0A00454550524F4D2063616E20A0
:10215000686F6C6420007A5F6F66667365743A20FE
:10216000000A416374697665204D65736820536C7D
:102170006F743A2000205A0020204D343230205312
:10218000003A0A00205A0020590020204D323036F3
:10219000205800486F6D65206F66667365743A0A53
:1021A00000204500205A00205900205800204200FD
:1021B00020540020204D3230352053004164766198
:1021C0006E6365643A20533C6D696E5F6665656455
:1021D000726174653E20543C6D696E5F7472617605
:1021E000656C5F66656564726174653E20423C6D36
:1021F000696E5F7365676D656E745F74696D655F49
:102200006D733E20583C6D61785F78795F6A6572C6
:102210006B3E205A3C6D61785F7A5F6A65726B3EF7
:1022200020453C6D61785F655F6A65726B3E0A00B0
:1022300020540020520020204D32303420500041E4
:102240006363656C65726174696F6E2028756E6971
:1022500074732F7332293A20503C7072696E745F28
:10226000616363656C3E20523C7265747261637495
:102270005F616363656C3E20543C74726176656C8B
:102280005F616363656C3E0A00204500205A0020B0
:10229000590020204D3230312058004D6178696D51
:1022A000756D20416363656C65726174696F6E2042
:1022B00028756E6974732F7332293A0A002045001D
:1022C000205A0020590020204D3230332058004D34
:1022D0006178696D756D206665656472617465739A
:1022E0002028756E6974732F73293A0A00204500FF
:1022F000205A0020590020204D39322058005374B4
:102300006570732070657220756E69743A0A0020DA
:10231000204D3230302044300A0020204D32303001
:102320002044002044697361626C65640A00466958
:102330006C616D656E742073657474696E67733A51
:102340000020204D3134392043203B20556E6974E4
:102350007320696E2043656C736975730A002020D1
:10236000473231202020203B20556E69747320694C
:102370006E206D6D0A00536C6565702E2E2E005513
:10238000424C2041646A7573746D656E74205A0006
:102390002028656E61626C6564290A0020286469E2
:1023A0007361626C6564290A0055424C0041757482
:1023B0006F20426564204C6576656C696E673A20D3
:1023C00000204E6F7A7A6C65290A0020262041622F
:1023D0006F76650020262053616D65205A20617359
:1023E0000020262042656C6F77002028416C6967C9
:1023F0006E6564205769746800205A3A0020593A83
:102400000050726F6265204F666673657420583A9B
:10241000004649585F4D4F554E5445445F50524F0A
:1024200042450A0050726F62653A2000436172743F
:10243000657369616E0A004D616368696E65205459
:102440007970653A20003C3C3C205A5F5341464538
:102450005F484F4D494E470A005A2070726F6265BF
:10246000206F75742E206265640A005A2070726FA6
:102470006265206F75742E2062656400203A205AD0
:102480005F534146455F484F4D494E470A00202063
:1024900064657374696E6174696F6E3D005A5F5351
:1024A0004146455F484F4D494E47203E3E3E0A005B
:1024B000473238205A20466F7262696464656E0A3A
:1024C00000473238205A20466F7262696464656E34
:1024D000003C3C3C2067636F64655F4732380A000C
:1024E000203A203E2028686F6D655F616C6C207C0F
:1024F0007C20686F6D655A29203E2066696E616C8C
:102500000A00202063757272656E745F706F736964
:1025100074696F6E3D00203A203E20686F6D6559EA
:102520000A00202063757272656E745F706F736944
:1025300074696F6E3D00203A203E20686F6D6558CB
:102540000A00202063757272656E745F706F736924
:1025500074696F6E3D005261697365205A2028626C
:1025600065666F726520686F6D696E672920746F8C
:1025700020003E20656E6473746F70732E656E610B
:10258000626C652874727565290A003E3E3E2067BC
:10259000636F64655F4732380A00205A3A20002092
:1025A000593A200042656420583A20004E6F206D51
:1025B0006F76652E00456E642066696C65206C69D7
:1025C00073740A00426567696E2066696C65206CE9
:1025D0006973740A0046696C652064656C6574658E
:1025E000643A0044656C6574696F6E206661696C5D
:1025F00065642C2046696C653A20006F70656E201A
:102600006661696C65642C2046696C653A200050EF
:10261000726F7465637465642050696E0A00202FC0
:10262000002042403A0020403A0024F4D43050C305
:102630008E20C2A24017828B7011127A910D816C8C
:10264000D90AA861E108C7586607615143061E4BC5
:102650005D05C145A7041A411104093D980371396C
:1026600031034036DB0265339102D4305402802EB0
:102670001D02632CEE01752AC501B028A0011027A8
:1026800081018F2564012B244B01E0223401AC2110
:102690001F018D200D01801FFC00841EED00971D81
:1026A000DF00B81CD200E61BC600201BBC00641A69
:1026B000B200B219A8000A19A0006A189900D1172F
:1026C000910040178B00B516840031167E00B315BB
:1026D00079003A157300C7146F0058146A00EE139E
:1026E00066008813630025135E00C7125B006C123E
:1026F000570015125400C111510070114F002111E3
:102700004B00D61049008D104700461044000210BF
:102710004200C00F4000800F3E00420F3C00060FF9
:102720003B00CB0E3800930E37005C0E3500270EB1
:102730003400F30D3200C10D3100900D3000600DFA
:102740002E00320D2D00050D2C00D90C2B00AE0CE7
:102750002900850C29005C0C2700350C27000E0C85
:102760002600E80B2400C40B2400A00B23007D0BE3
:1027700023005A0B2100390B2100180B2000F80A06
:102780001F00D90A1E00BB0A1E009D0A1D00800AF8
:102790001D00630A1C00470A1B002C0A1B00110ABB
:1027A0001A00F7091A00DD091900C4091900AB095C
:1027B0001900920917007B091800630917004C09DA
:1027C000160036091600200916000A091500F5083A
:1027D0001500E0081400CC081400B8081400A40880
:1027E0001400900813007D0812006B0813005808AD
:1027F00012004608120034081100230811001208C4
:10280000110001081100F0071000E0071000D007C8
:102810001000C0071000B0070F00A10710009107BB
:102820000E0083070F0074070F0065070E0057079F
:102830000E0049070E003B070D002E070E00200773
:102840000D0013070D0006070D00F9060C00ED063C
:102850000D00E0060C00D4060C00C8060C00BC06F7
:102860000C00B0060C00A4060B0099060C008D06A7
:102870000B0082060B0077060B006C060B0061064E
:102880000A0057060B004C060A0042060A003806EA
:102890000A002E060A0024060A001A060A0010067C
:1028A000090007060A00FD050900F4050900EB050B
:1028B0000900E2050900D9050900D0050900C7058E
:1028C0000900BE050900B5050800AD050800A5050D
:1028D00009009C050800940508008C050800840583
:1028E00008007C050800740508006C0507006505F4
:1028F00008005D050700560508004E05070047055E
:1029000007004005080038050700310507002A05C3
:102910000700230507001C050600160507000F0524
:1029200007000805060002050700FB040600F50481
:102930000700EE040600E8040600E2040700DB04DA
:102940000600D5040600CF040600C9040600C3042F
:102950000600BD040600B7040600B1040500AC047F
:102960000600A6040600A00405009B0406009504CA
:102970000500900406008A04050085040500800413
:1029800006007A04050075040500700405006B0458
:10299000050066040500610405005C040500570499
:1029A0000500520405004D040500480405004304D9
:1029B00005003E0404003A04050035040500300417
:1029C00004002C04050027040400230405001E0451
:1029D00004001A04040016040500110404000D0488
:1029E0000400090405000404040000040400FC03BE
:1029F0000400F8030400F4030400F0030400EC03F3
:102A00000400E8030400E4030400E0030400DC0322
:102A10000400D8030400D4030400D0030400CC0352
:102A20000400C8030300C503030024F404D9201BD9
:102A3000C40C5C0E9804C4095F0265077101F405BB
:102A4000F900FB04B30048048700C1036900580380
:102A5000550003034500BE023A00840231005302D0
:102A60002A002902250004022000E4011C00C801FC
:102A70001900AF01170098011400840113007101BF
:102A800010006101100051010E0043010D003601DC
:102A90000B002B010B0020010B00150109000C019C
:102AA000090003010800FB000800F3000800EB0028
:102AB0000700E4000600DE000600D8000600D20091
:102AC0000600CC000500C7000500C2000500BD00DF
:102AD0000400B9000400B5000400B1000400AD001A
:102AE0000400A9000400A5000300A20003009F0049
:102AF00004009B000300980003009500020093006F
:102B00000300900003008D0002008B00030088008A
:102B100002008600020084000300810002007F00A2
:102B200002007D0002007B000200790002007700B5
:102B300001007600020074000200720001007100C2
:102B400002006F0002006D0001006C0002006A00CC
:102B500001006900020067000100660001006500D5
:102B600001006400020062000100610001006000D9
:102B700001005F0002005D0001005C0001005B00DD
:102B800001005A00010059000100580001005700DF
:102B900001005600010055000100540001005300DF
:102BA00000005300010052000100510001005000DC
:102BB00001004F0001004E0000004E0001004D00DA
:102BC00001004C0001004B0000004B0001004A00D6
:102BD00001004900010048000000480001004700D2
:102BE00001004600000046000100450000004500CD
:102BF00001004400010043000000430001004200C6
:102C000000004200010041000000410001004000BE
:102C100001003F0000003F0001003E0000003E00B8
:102C200001003D0000003D0001003C0000003C00B0
:102C300000003C0001003B0000003B0001003A00A6
:102C400000003A000100390000003900010038009E
:102C50000000380000003800010037000000370095
:102C6000010036000000360000003600010035008B
:102C70000000350000003500010034000000340081
:102C80000000340001003300000033000000330076
:102C9000010032000000320000003200010031006B
:102CA0000000310000003100010030000000300061
:102CB0000000300001002F0000002F0000002F0056
:102CC00000002F0001002E0000002E0000002E004A
:102CD00001002D0000002D0000002D0000002D003F
:102CE00001002C0000002C0000002C0000002C0033
:102CF00001002B0000002B0000002B0000002B0027
:102D000001002A0000002A0000002A0000002A001A
:102D1000010029000000290000002900000029000E
:102D20000000290001002800000028000000280001
:102D300000002800000028000100270000002700F4
:102D400000002700000027000000270001002600E7
:102D500000002600000026000000260000002600DB
:102D600001002500000025000000250000002500CE
:102D700000002500000025000100240000002400C0
:102D800000002400000024000000240001002300B3
:102D900000002300000023000000230000002300A7
:102DA0000000230000002300010022000000220098
:102DB000000022000000220000002200000022008B
:102DC000010021000000210000002100000021007E
:102DD000000021000000210000002100010020006F
:102DE0000000200000002000000020000000200063
:102DF00000002000000020000000200001001F0053
:102E000000001F0000001F0000001F0000001F0046
:102E100000001F0000001F0001001E0000001E0037
:102E200000001E0000001E0000004D383420582015
:102E300059205A2045006265640A002C207379737A
:102E400074656D2073746F707065642120486561CE
:102E50007465725F49443A200048656174696E6721
:102E6000206661696C65640048656174696E6720FD
:102E70006661696C65640048656174696E672066A7
:102E800061696C65640048656174696E672066619C
:102E9000696C65640070012C0190012701B001226A
:102EA00001C0011D01F00118011002130130020ED2
:102EB000016002090190020401C002FF000003FA50
:102EC000004003F5008003F000D003EB002004E68F
:102ED000007004E100E004DC004005D700C005D22A
:102EE000004006CD00D006C8008007C3003008BEF1
:102EF00000F008B900C009B400B00AAF00B00BAAD6
:102F000000D00CA500000EA000500F9B00C0109632
:102F1000005012910000148C00C0158700B0178279
:102F200000B0197D00D01B7800001E730040206E99
:102F30000090226900F024640040275F0090295A25
:102F400000E02B5500102E500020304B0010324670
:102F500000E033410090353C0010373700703832C4
:102F600000A0392D00B03A2800A03B2300603C1E91
:102F700000103D1900903D1400103E0F00703E0AF5
:102F800000C03E0500003F0000403FFBFF803FF6D1
:102F9000FFC03FF1FF544845524D414C2052554E21
:102FA0004157415900546865726D616C2052756ECD
:102FB00061776179004572723A204D494E54454D12
:102FC0005020424544004572723A204D494E5445C6
:102FD0004D50004D494E54454D50207472696767FD
:102FE00065726564004572723A204D415854454DF2
:102FF0005020424544004572723A204D4158544594
:103000004D50004D415854454D50207472696767CA
:103010006572656400556E69666965642042656421
:10302000204C6576656C696E6700616374697665CE
:103030002E0A00696E002053797374656D20763115
:103040002E30312000202020202E202020004E4134
:103050004E004353563A0A0A004C43443A0A0A00C7
:103060003A0A0A0020666F7220000A426564205402
:103070006F706F677261706879205265706F7274DB
:10308000003F496E73756666696369656E742045B5
:103090004550524F4D2073746F7261676520666FA3
:1030A000722061206D657368206F66207468697393
:1030B0002073697A652E0A003F3F3F2059696B658E
:1030C000732120204E414E20696E206765745F7A1F
:1030D0005F636F7272656374696F6E2800203E3E95
:1030E0003E2D2D2D3E200029203D200020726177AD
:1030F000206765745F7A5F636F7272656374696F6E
:103100006E28000000000000000000000000003CED
:103110003C3C207365745F617869735F69735F61BC
:10312000745F686F6D652800203A200A00202063D4
:10313000757272656E745F706F736974696F6E3DDE
:10314000005D203D20003E20686F6D655F6F666604
:103150007365745B002A2A2A205A20484F4D454443
:1031600020544F20454E4453544F5020285A5F4D11
:10317000494E5F50524F42455F454E4453544F5065
:1031800029202A2A2A0A003E3E3E207365745F6188
:103190007869735F69735F61745F686F6D6528003C
:1031A000000048420000484200008040000000004B
:1031B0005761726E696E673A20486F6D696E67205D
:1031C00042756D702044697669736F72203C2031BE
:1031D0000A000202040000A0400000A0400000001D
:1031E0004000005C4300005C4300005C433C3C3C0E
:1031F00020686F6D65617869732800203A203E2051
:103200004146544552207365745F617869735F6904
:10321000735F61745F686F6D650A0020206375726B
:1032200072656E745F706F736974696F6E3D00488C
:103230006F6D65203220536C6F773A0A004D6F76C0
:103240006520417761793A0A00486F6D6520312029
:10325000466173743A0A00FFFFFF3E3E3E20686FEE
:103260006D656178697328007C3C3E5E2B3D3F2F85
:103270005B5D3B2C2A225C004572726F7220777274
:103280006974696E6720746F20454550524F4D2117
:103290000A00290A002062797465733B2063726317
:1032A000200053657474696E67732053746F726580
:1032B0006420280055424C2053797374656D207248
:1032C0006573657428290A00206C6F616465642049
:1032D00066726F6D2073746F726167652E0A004DA0
:1032E00065736820002E0A0020696E697469616C3C
:1032F000697A65642E0A0A003F43616E277420656F
:103300006E61626C652000202863616C63756C617E
:1033100074656429210A0020213D20004545505252
:103320004F4D20435243206D69736D617463682073
:103330002D202873746F726564292000290A0020EB
:1033400062797465733B2063726320002073746F2D
:103350007265642073657474696E67732072657436
:10336000726965766564202800204D61726C696E13
:103370003D563339290A0028454550524F4D3D00EE
:10338000454550524F4D2076657273696F6E206DC2
:1033900069736D617463682000206D6573682073C4
:1033A0006C6F747320617661696C61626C652E0A62
:1033B000003F496E76616C696420736C6F742E0AED
:1033C000004D65736820736176656420696E2073B3
:1033D0006C6F74200020736C6F743D00206D6573FA
:1033E0006865735F656E643D004532454E443D003F
:1033F0000A4D657368206F6E6C7920706172746914
:10340000616C6C7920706F70756C617465642E0AE4
:103410000A005D0A00616674657220726F746174DF
:10342000696F6E203D205B005D2020202D2D2D3EFC
:1034300020006265666F726520726F746174696FD7
:103440006E203D205B00642066726F6D20337264D5
:1034500020706F696E743A2000642066726F6D2070
:10346000326E6420706F696E743A20006420667258
:103470006F6D2031737420706F696E743A20002074
:103480000A004420636F6E7374616E743A20007298
:103490006F746174696F6E206D61747269783A003F
:1034A0005D0A0062656420706C616E65206E6F72EB
:1034B0006D616C203D205B0020616E642074616B47
:1034C000652061206D6561737572656D656E742E22
:1034D0000A006D6D20746869636B2E0A0042757373
:1034E000696E6573732043617264206973200052B2
:1034F000656D6F76652026206D6561737572652038
:103500006265640052656D6F7665207368696D0051
:10351000506C616365207368696D2026206D65615C
:103520007375726500506C616365207368696D2006
:10353000756E646572206E6F7A7A6C65004D657386
:103540006820506F696E74204D6561737572656493
:103550002061743A20000A4D657368206F6E6C79A3
:10356000207061727469616C6C7920706F70756C19
:10357000617465642E0A00506C616365207368692C
:103580006D2026206D656173757265004D656173F0
:10359000757265004D6F76696E6720746F206E6579
:1035A000787400496E76616C6964206D6170207476
:1035B0007970652E0A0A003F2846296164652068F3
:1035C000656967687420666F7220426564204C6587
:1035D00076656C20436F7272656374696F6E206EDE
:1035E0006F7420706C61757369626C652E0A0A00D5
:1035F0003F43616E2774206163746976617465204E
:10360000616E6420646561637469766174652061CC
:1036100074207468652073616D652074696D652E12
:103620000A0A00496E76616C69642059206C6F63E8
:103630006174696F6E207370656369666965642E75
:103640000A0A00496E76616C69642058206C6F63C9
:103650006174696F6E207370656369666965642E55
:103660000A0A00426F7468205820262059206C6F87
:10367000636174696F6E73206D7573742062652069
:103680007370656369666965642E0A0A003F496E56
:1036900076616C696420677269642073697A652059
:1036A000284A292073706563696669656420283239
:1036B0002D39292E0A0A003F285029686173652098
:1036C00076616C756520696E76616C69642028305E
:1036D0002D36292E0A0A003F2856296572626F731B
:1036E00065206C6576656C20697320696D706C610E
:1036F000757369626C652028302D34292E0A0A0002
:103700003F285229657065746974696F6E20636F14
:10371000756E7420696E76616C69642028312B297E
:103720002E0A0A00446F696E672047323900207400
:103730006F6F206C6F6E6720657874727573696F38
:103740006E2070726576656E7465640A0020636F22
:103750006C6420657874727573696F6E2070726521
:1037600076656E7465640A0000446F6E652E0A000B
:103770003F557365203020746F20003F496E76619D
:103780006C69642073746F7261676520736C6F7409
:103790002E0A003F454550524F4D2073746F7261A1
:1037A0006765206E6F7420617661696C61626C651B
:1037B0002E0A002C20592000203B20582000205A9F
:1037C0002000204A20004D34323120492000473269
:1037D000392049203939390A00446F6E652E0A00B4
:1037E0003F557365203020746F20003F496E76612D
:1037F0006C69642073746F7261676520736C6F7499
:103800002E0A003F454550524F4D2073746F726130
:103810006765206E6F7420617661696C61626C65AA
:103820002E0A004732392050322066696E6973686B
:1038300065642E0A005859206F7574736964652099
:103840007072696E7461626C65207261646975730F
:103850002E0A003F4572726F7220696E20427573A6
:10386000696E6573732043617264206D6561737561
:1038700072656D656E742E0A004D616E75616C6CBB
:10388000792070726F62696E6720756E7265616310
:103890006861626C65206D657368206C6F6361742C
:1038A000696F6E732E0A00292E0A0A0050726F6229
:1038B000696E67204D65736820506F696E74732060
:1038C000436C6F7365737420746F2028004D6573AB
:1038D0006820696E76616C6964617465642E20503D
:1038E000726F62696E67206D6573682E0A004D65A0
:1038F0007368207A65726F65642E0A00446566619C
:10390000756C742073746F7261676520736C6F746B
:1039100020302073656C65637465642E0A00417401
:1039200074656D707420746F2070726F6265206FA3
:10393000666620746865206265642E0A004C6F61BB
:1039400064696E6720746573745F70617474657206
:103950006E2076616C7565732E0A0A00496E766179
:103960006C696420746573745F7061747465726EE1
:103970002076616C75652E20282D3120746F2032E1
:10398000290A0A004C6F636174696F6E7320696E57
:1039900076616C6964617465642E0A0A00456E7410
:1039A000697265204D65736820696E76616C696423
:1039B000617465642E0A0A0077697468204D353099
:1039C000322C204D3530302C204D35303120696E71
:1039D0002074686174206F726465722E0A0A003F59
:1039E000596F75206E65656420746F20656E616225
:1039F0006C6520796F757220454550524F4D20619E
:103A00006E6420696E697469616C697A6520697495
:103A10000A005374616E6461726420446576696162
:103A200074696F6E3A20004D65616E204D65736854
:103A3000204865696768743A200023206F66207308
:103A4000616D706C65733A20000200000301000193
:103A500000030100030200000003000100583A5374
:103A60003A4E3A493A5D0A0062656420706C616EB4
:103A700065206E6F726D616C203D205B00202044DC
:103A80003D002020423D004C534620526573756C2A
:103A9000747320413D00726F746174696F6E206DA4
:103AA00061747269783A005D0A006166746572201B
:103AB000726F746174696F6E203D205B005D202021
:103AC000202D2D2D3E20006265666F726520726F7D
:103AD000746174696F6E203D205B005D0A00626551
:103AE0006420706C616E65206E6F726D616C203D3C
:103AF000205B002020443D002020423D004C5346E6
:103B000020526573756C747320413D00436F756C72
:103B100064206E6F7420636F6D706C657465204CEB
:103B20005346210020202066696E616C203E3E3E97
:103B30002D2D2D3E2000202020636F72726563744E
:103B4000696F6E3A2000292020206D6561737572BF
:103B500065643A2000292020206C6F676963616CDE
:103B60003A2000646F6E650A00496E737566666977
:103B70006369656E7420646174610A0045787472CB
:103B800061706F6C6174696E67206D6573682E2E4D
:103B90002E002C79693D002C78315F693D00206F43
:103BA0007574206F6620626F756E647320696E2075
:103BB0007A5F636F7272656374696F6E5F666F724E
:103BC0005F785F6F6E5F686F72697A6F6E74616C39
:103BD0005F6D6573685F6C696E65286C78303D0059
:103BE00078316C5F69007969002C2079315F693D1B
:103BF000002C2078693D00206F7574206F6620626C
:103C00006F756E647320696E207A5F636F72726580
:103C10006374696F6E5F666F725F795F6F6E5F76F8
:103C20006572746963616C5F6D6573685F6C696E02
:103C300065286C79303D00786900796C5F690045D2
:103C400072723A2055424C2053617665007361765A
:103C5000655F75626C5F6163746976655F737461DB
:103C600074655F616E645F64697361626C6564282A
:103C7000292063616C6C6564206D756C7469706C6F
:103C8000652074696D657320696E206120726F779D
:103C90002E0A004572723A2055424C2052657374C8
:103CA0006F726500726573746F72655F75626C5FC9
:103CB0006163746976655F73746174655F616E6476
:103CC0005F6C6561766528292063616C6C65642092
:103CD000746F6F206D616E792074696D65732E0A43
:103CE000002073616E69747920636865636B73206B
:103CF0007061737365642E0A00206D657368657367
:103D00002E0A0A00454550524F4D2063616E2068CF
:103D10006F6C642000454550524F4D2066726565BA
:103D200020666F722055424C3A20007A5F76616CB3
:103D300075655B5D5B5D2073697A653A2000736928
:103D40007A656F662875626C29203A2020002074FD
:103D50006F20004D657368657320676F2066726F12
:103D60006D200075626C5F73746174655F7265636A
:103D7000757273696F6E5F63686B203A0075626C71
:103D80005F73746174655F61745F696E766F6361A0
:103D900074696F6E203A00202073746174653A0074
:103DA0004B696C6C2070696E206F6E203A00202089
:103DB00000592D41786973204D65736820506F69F3
:103DC0006E74732061743A2000202000582D4178D1
:103DD0006973204D65736820506F696E747320613C
:103DE000743A20004D4553485F595F44495354206D
:103DF00020004D4553485F585F44495354202000EC
:103E0000475249445F4D41585F504F494E54535FAC
:103E100059202000475249445F4D41585F504F4957
:103E20004E54535F5820200055424C5F4D45534837
:103E30005F4D41585F59202028323230202D2028F4
:103E4000313029293D0055424C5F4D4553485F4D67
:103E500041585F58202028323230202D2028313020
:103E600029293D0055424C5F4D4553485F4D494E11
:103E70005F5920202830202B203130293D00554229
:103E80004C5F4D4553485F4D494E5F5820202830C8
:103E9000202B203130293D007A70726F62655F7A85
:103EA0006F66667365743A200055424C206F626AF3
:103EB00065637420636F756E743A2000204C6F61E7
:103EC0006465642E004D65736820004E6F204D655B
:103ED0007368204C6F616465642E003A200045458C
:103EE00050524F4D2044756D703A0A002066726F33
:103EF0006D2063757272656E74206D6573682E0A2D
:103F0000005375627472616374696E67206D6573C6
:103F10006820696E20736C6F7420003F55736520B4
:103F20003020746F20003F496E76616C69642073A5
:103F3000746F7261676520736C6F742E0A003F5551
:103F40007365203020746F20003F53746F72616777
:103F50006520736C6F7420232072657175697265BA
:103F6000642E0A003F454550524F4D2073746F72C6
:103F7000616765206E6F7420617661696C61626C47
:103F8000652E0A004D65736820456469746F720080
:103F9000446F6E652045646974696E67204D657372
:103FA000680A00446F6E652045646974696E672015
:103FB0004D657368004D6573682045646974696E6A
:103FC000672053746F707065640046696E65205495
:103FD000756E696E67204D6573680028582C5929E5
:103FE000206F757473696465207072696E746162A4
:103FF0006C65207261646975732E0A004F66667382
:104000006574206F7574206F6620626F756E6473BF
:104010002E20283020746F2031306D6D290A0A005F
:104020005072696E7420706175736564000050721F
:10403000696E742061626F72746564005072696E9B
:10404000742066726F6D2053440053746F7020703B
:1040500072696E7400526573756D65207072696E59
:1040600074004E6F20534420636172640050617588
:104070007365207072696E7400436F6E74726F6C3A
:1040800000507265706172650054756E6500496E0E
:10409000666F2073637265656E00466C6F770046CD
:1040A0006C6F7700466C6F770046616E20737065A9
:1040B00065640046616E2073706565640046616EDC
:1040C0002073706565640042656400426564004E5B
:1040D0006F7A7A6C65004E6F7A7A6C650053706502
:1040E0006564005370656564005370656564004DD8
:1040F00061696E005072656865617420504C4120A2
:10410000456E64005072656865617420504C4120B2
:10411000426564005072656865617420504C4100CE
:1041200050726570617265005072656865617420D7
:1041300041425320456E6400507265686561742089
:104140004142532042656400507265686561742085
:1041500041425300507265706172650043616E6E3A
:104160006F74206F70656E207375626469722000D1
:10417000656E7175657565696E6720220065636897
:104180006F3A002D2D2D2D2D2D2D2D2D2D2D2D2D3D
:10419000002029202020002C20002C20002C200092
:1041A000202920202064657374696E6174696F6EC4
:1041B0003D2820002C20002C20002C200020202036
:1041C0002063757272656E743D2820002020206681
:1041D000706D6D3D00001C1F11111F0000000619BD
:1041E0001803130C00040E1F041C000000000E1323
:1041F00015110E00001C10181705060500040A0A08
:104200000A0A11110E0C12120C00000000001F15FA
:1042100011151F000025753A253032750025303202
:10422000753A25303275002D2D2D005344005A006B
:10423000590058004D313133205300205A3A0020A4
:10424000593A0020436F756E7420583A0020453A61
:1042500000205A3A0020593A00583A002F2F2000E7
:104260004F66660A00466164652048656967687440
:104270002000426564204C6576656C696E6720009D
:104280004661696C656420746F20656E61626C655F
:1042900020426564204C6576656C696E670A00751E
:1042A000626C2E73746174652E73746F72616765CE
:1042B0005F736C6F74203D200055424C5F4D455339
:1042C000485F56414C4944203D20003F55736520CE
:1042D0003020746F20003F496E76616C69642073F2
:1042E000746F7261676520736C6F742E0A003F45AE
:1042F0004550524F4D2073746F72616765206E6F29
:104300007420617661696C61626C652E0A004D658E
:10431000736820706F696E742063616E6E6F7420B5
:104320006265207265736F6C7665640A004D343285
:104330003120696E636F727265637420706172619F
:104340006D657465722075736167650A004F6666F6
:1043500073657473206170706C6965640045727276
:104360003A20546F6F206661722100546F6F20668F
:1043700061722066726F6D207265666572656E632C
:104380006520706F696E740A003A20007A5F6D696B
:104390006E3A20202D3230207A5F6D61783A2020ED
:1043A0003230005A204F666673657420004E6F20CD
:1043B00063617365206C696768740A003C3C3C204B
:1043C000646F5F626C6F636B696E675F6D6F76655C
:1043D0005F746F0A003E3E3E20646F5F626C6F63E5
:1043E0006B696E675F6D6F76655F746F00203A2052
:1043F00073657475705F666F725F656E6473746FFA
:10440000705F6F725F70726F62655F6D6F76650A65
:1044100000202063757272656E745F706F736974CB
:10442000696F6E3D00203A20636C65616E5F757048
:104430005F61667465725F656E6473746F705F6FE1
:10444000725F70726F62655F6D6F76650A00202023
:1044500063757272656E745F706F736974696F6E85
:104460003D00646F5F70726F62655F726169736552
:104470002800486F6D6520257325732573206669B4
:10448000727374002066697273740A005A005900CE
:104490005800486F6D6520006465706C6F793A2034
:1044A00000203A207365745F70726F62655F6465A7
:1044B000706C6F7965640A00202063757272656E96
:1044C000745F706F736974696F6E3D00203A203CB1
:1044D0003C3C20646F5F70726F62655F6D6F7665E4
:1044E0000A00202063757272656E745F706F736965
:1044F00074696F6E3D00203A203E3E3E20646F5F3F
:1045000070726F62655F6D6F76650A00202063755B
:104510007272656E745F706F736974696F6E3D005F
:10452000203A203C3C3C2072756E5F7A5F70726F5F
:1045300062650A00202063757272656E745F706F29
:10454000736974696F6E3D00203A203E3E3E2072D2
:10455000756E5F7A5F70726F62650A002020637506
:104560007272656E745F706F736974696F6E3D000F
:104570003C3C3C2070726F62655F70740A00205A88
:104580003A200020593A200042656420583A200021
:10459000203A200A00202063757272656E745F7085
:1045A0006F736974696F6E3D0073746F77290A00C9
:1045B0002C20002C20003E3E3E2070726F62655F12
:1045C000707428003C3C3C20646F5F686F6D696EBE
:1045D000675F6D6F766528002C20002C20003E3E22
:1045E0003E20646F5F686F6D696E675F6D6F7665A3
:1045F0002800526573656E643A20006F6B00676532
:104600006E65726963206D6F766520646F6E6520DC
:10461000696E2075626C2E6C696E655F746F5F6485
:10462000657374696E6174696F6E282900686F72B2
:10463000697A6F6E74616C206D6F766520646F6E41
:104640006520696E2075626C2E6C696E655F746F93
:104650005F64657374696E6174696F6E2829007692
:104660006572746963616C206D6F766520646F6E2E
:104670006520696E2075626C2E6C696E655F746F63
:104680005F64657374696E6174696F6E2829004692
:10469000494E414C5F4D4F564520696E2075626C06
:1046A0002E6C696E655F746F5F64657374696E61AB
:1046B00074696F6E2829005374617274206F6620CC
:1046C00075626C2E6C696E655F746F5F6465737480
:1046D000696E6174696F6E2829002C2065653D0044
:1046E0002C207A653D002C2079653D002075626C98
:1046F0002E6C696E655F746F5F64657374696E615B
:1047000074696F6E2878653D0020746F6F206C6F40
:104710006E6720657874727573696F6E207072654C
:1047200076656E7465640A0020636F6C642065783A
:1047300074727573696F6E2070726576656E7465DC
:10474000640A00627573793A20706175736564203C
:10475000666F7220696E7075740A00627573793ABB
:104760002070617573656420666F72207573657261
:104770000A00627573793A2070726F6365737369AA
:104780006E670A004B494C4C45442E20004B494C67
:104790004C20636175736564206279204B494C4CF1
:1047A00020627574746F6E2F70696E0A004B494CED
:1047B0004C45442E20004B494C4C20636175736579
:1047C0006420627920746F6F206D75636820696E54
:1047D0006163746976652074696D65202D20637549
:1047E0007272656E7420636F6D6D616E643A200045
:1047F000506C656173652072657365740050524931
:104800004E5445522048414C544544005072696E04
:104810007465722068616C7465642E206B696C6CC1
:1048200028292063616C6C6564210A000A01240157
:1048300011241FBECFEFD1E2DEBFCDBF00E00CBF21
:1048400013E0A0E0B2E0EAE3FBED02E00BBF02C040
:1048500007900D92A43FB107D9F724E1A4EFB3E08C
:1048600001C01D92A233B207E1F714E2C7E1D4E21E
:1048700000E006C021970109802FFE010F94FF6C14
:10488000C631D10780E00807A9F70F94E1510D94D4
:104890008C6D0C9400002F923F924F925F926F921A
:1048A0007F928F929F92AF92BF92CF92DF92EF92C0
:1048B000FF920F931F93CF93DF93CDB7DEB7CE5602
:1048C000D1090FB6F894DEBF0FBECDBF00915D06D3
:1048D00020E6029F8001112403521B4F8091BD0FDF
:1048E00080FF1AC0EDE7F1E484917F013FEFE31A06
:1048F000F30A811102C0780104C00E94C15AF70175
:10490000F3CFD7018D917D01882319F00E94C15A00
:10491000F8CF8AE00E94C15A81E090E09093C90FDD
:104920008093C80F10921604109215048FE38093A1
:104930001F0410921E0410921D0410920E04109277
:104940000F041092100410921104F80180810F5F7F
:104950001F4F8032D1F38E34B1F4818190ED980FE6
:104960009A3020F08D3211F08B3269F43296DF01EB
:1049700031962C9120532A30D0F3CD01FC010196C1
:1049800020812032D9F3F093D213E093D1137F0129
:10499000BFEFEB1AFB0A10816AE270E0C7010F94C7
:1049A000546D009731F0FC01319780818032E1F342
:1049B00011821D3429F0143519F0173409F0CCC0D8
:1049C000F70180812FEFE21AF20A8032C9F3805397
:1049D0008A3008F0C1C010931F0420911D0430914B
:1049E0001E044AE03196429FC001439F900D11245E
:1049F000DF0111972C91022E000C330B205331094B
:104A0000280F391F808180538A3060F330931E0451
:104A100020931D04CF013196DC014C914032D1F33B
:104A20001D34D1F42E31310591F03CF4273131059C
:104A300071F02C31310581F40AC02537310564F05D
:104A40002737310524F0203AE3E03E0729F490931C
:104A500016048093150480C0109216041092150459
:104A60000091D11361E070E0FD0131968C918823B3
:104A700009F472C08132A1F41D3491F42032310561
:104A800079F4F0931604E093150463E270E0CF012B
:104A90000F94546D009709F45FC0DC011C925CC058
:104AA0009FEBD92ED80E49E1C42ECD14C0F1AF0131
:104AB000FA0190814F5F5F4F9032D1F340ED490F83
:104AC0004A3040F043ED490F423020F09B3211F064
:104AD0000C946B3BAF01AD2CB12C7501A3E0F594A8
:104AE000E794AA95E1F7C701825F9B4F7C018D2D6A
:104AF0008770DB0102C0AA0FBB1F8A95E2F7CD01C8
:104B0000D7019C91892B8C934115510511F0401BC5
:104B100001C040E0D501AC50BC4F4C930AC080911D
:104B2000150490911604892B21F4B0931604A093D8
:104B30001504808181548A3110F4DF0195CFDF01A3
:104B400031969C9190539A30D0F3CD01FC0101969F
:104B500040814032D9F3F1CF80911F048D3409F4A4
:104B60004FC6843511F40C94D93A873411F00C9463
:104B70004A3B80911D0490911E048C31910509F4EB
:104B800021C5B4F4843091053CF482309105F4F5EC
:104B900097FF30C00C94643B8430910509F40EC536
:104BA0004A9711F00C94643B0E9435420C94643B8C
:104BB0008A32910509F486C564F48D31910509F4B2
:104BC00006C54E9711F00C94643B0E9499B10C9469
:104BD000643B8B35910509F4FEC48C35910509F4CD
:104BE000FFC48A35910511F00C94643B10921C04AB
:104BF0000C94643B80915702882311F40C94643B1D
:104C00000F94B1370F948A3D0C94643B2091570266
:104C1000222311F40C94643B11E0029709F010E098
:104C20000F94B13782E50E942942882309F42AC1F2
:104C30000E94C3416B017C014090D4075090D5077E
:104C40006090D6077090D7072091D8073091D90788
:104C50004091DA075091DB072A8F3B8F4C8F5D8F95
:104C60008091E8079091E907A091EA07B091EB07DE
:104C70008E8F9F8FA8A3B9A32091EC073091ED07E9
:104C80004091EE075091EF072AA73BA74CA75DA7DD
:104C900020E030E0A901C701B6010F940562882326
:104CA00009F472C4A30192016E8D7F8D88A199A130
:104CB0000F94056281110DC02A8D3B8D4C8D5D8D49
:104CC0006AA57BA58CA59DA50F940562882309F490
:104CD0005BC420E030E0A901C701B6010F94056272
:104CE000881F8827881F181309C080E090E0A0E87B
:104CF000BFE38AAB9BABACABBDAB08C020E030E000
:104D000040E85FEB2AAB3BAB4CAB5DABA301920140
:104D10006E8D7F8D88A199A10F94D3686EA37FA318
:104D200088A799A72A8D3B8D4C8D5D8D6AA57BA5A3
:104D30008CA59DA50F94D3686EA77FA788AB99AB70
:104D40002EA13FA148A559A5CA01B9010F946A62D5
:104D50004B015C012EA53FA548A959A9CA01B9017B
:104D60000F946A629B01AC01C501B4010F94D46831
:104D70000F94D56B6AA37BA38CA39DA320E030E0A6
:104D800040E05FE30F946A624B015C01A70196016A
:104D9000C701B6010F946A626B017C01A501940101
:104DA000C501B4010F946A629B01AC01C701B60151
:104DB0000F94D3680F94D56B9B01AC016AA97BA9B2
:104DC0008CA99DA90F946A624B015C012E8D3F8DC9
:104DD00048A159A1C301B2010F94D46820E030E08A
:104DE00040E05FE30F946A626B017C016EA57FA5D2
:104DF00088A999A990582AA13BA14CA15DA10F9423
:104E0000B0699B01AC01C501B4010F946A629B01BA
:104E1000AC01C701B6010F94D468A30192010F94AD
:104E2000D3686B017C012AA53BA54CA55DA56A8DC5
:104E30007B8D8C8D9D8D0F94D46820E030E040E018
:104E40005FE30F946A622B013C012AA13BA14CA1B4
:104E50005DA16EA17FA188A599A50F94B0699B0162
:104E6000AC01C501B4010F946A629B01AC01C3019E
:104E7000B2010F94D4682A8D3B8D4C8D5D8D0F94BB
:104E8000D36814C089E40E942942882329F00E9433
:104E9000C3416B017C0103C0C12CD12C76018AE493
:104EA0000E9429428823D9F00E94C3416AA77BA7A8
:104EB0008CA79DA720E030E0A901C701B6010F949F
:104EC000056281111AC020E030E0A9016AA57BA526
:104ED0008CA59DA50F94056281110FC055C320E0DC
:104EE00030E0A901C701B6010F940562882309F4D7
:104EF0004BC31AA61BA61CA61DA6D701C601B058F7
:104F00008A8F9B8FAC8FBD8F2AA53BA54CA55DA535
:104F100050582E8F3F8F48A359A39C01AD01BC016F
:104F2000CD010F946A624B015C012E8D3F8D48A12B
:104F300059A1CA01B9010F946A629B01AC01C50174
:104F4000B4010F94D4680F94D56B2A966CAF7DAFE3
:104F50008EAF9FAF2A978091D4079091D507A091EB
:104F6000D607B091D7078AA39BA3ACA3BDA3A70183
:104F70009601BC01CD010F94D4686AAB7BAB8CABBE
:104F80009DAB2091D8073091D9074091DA07509115
:104F9000DB072EA73FA748AB59AB2AA53BA54CA5DD
:104FA0005DA56EA57FA588A999A90F94D4686EAB5D
:104FB0007FAB88AF99AF8091E8079091E907A09106
:104FC000EA07B091EB078AAF9BAFACAFBDAF2AA9A0
:104FD0003BA94CA95DA9BC01CD010F94D3686B011D
:104FE0007C012091EC073091ED074091EE07509144
:104FF000EF0722962CAF3DAF4EAF5FAF22972EA9A1
:105000003FA948AD59AD22966CAD7DAD8EAD9FAD3B
:1050100022970F94D3684B015C018091DC0790913B
:10502000DD07A091DE07B091DF0726968CAF9DAF1C
:10503000AEAFBFAF26979C01AD016091F0077091B4
:10504000F1078091F2079091F3070F94D3686EA354
:105050007FA388A799A72091E0073091E1074091AD
:10506000E2075091E30762962CAF3DAF4EAF5FAFC2
:1050700062976091F4077091F5078091F60790911F
:10508000F7070F94D3682E966CAF7DAF8EAF9FAFAE
:105090002E97A70196016A8D7B8D8C8D9D8D0F9427
:1050A0006A622B013C01A50194016E8D7F8D88A160
:1050B00099A10F946A629B01AC01C301B2010F94E4
:1050C000D4682B013C01A50194016A8D7B8D8C8DE8
:1050D0009D8D0F946A624B015C01A70196016E8D54
:1050E0007F8D88A199A10F946A629B01AC01C501D3
:1050F000B4010F94D368A30192010F9447696B0127
:105100007C0120E030E0A9010F94056287FF0AC00E
:105110002BED3FE049EC50E4C701B6010F94D46891
:105120006B017C01112351F02BED3FE049EC50E481
:10513000C701B6010F94D3686B017C0120E030E019
:10514000A901C701B6010F940562811122C02AADE1
:105150003BAD4CAD5DAD6AA17BA18CA19DA10F942F
:105160000562811116C022962CAD3DAD4EAD5FADEE
:1051700022976EA57FA588A999A90F940562811130
:1051800008C07BEDC72E7FE0D72E79ECE72E70E4C8
:10519000F72E2A962CAD3DAD4EAD5FAD2A97C701D7
:1051A000B6010F946A629B01AC010F946A624B01D5
:1051B0005C012EA13FA148A559A5CA01B9010F94D0
:1051C0006A629B01AC01C501B4010F94D4680F94CD
:1051D000D56B4B015C012FE632E143E85AE30F94B3
:1051E000056287FDCDC1C501B4010F94496A0F94D2
:1051F0001D6A1B01672B19F422242394312CB10161
:1052000080E090E00F9409624B015C019B01AC01CE
:10521000C701B6010F94B0696AA37BA38CA39DA3B9
:10522000A50194016EA17FA188A599A50F94B069ED
:105230002A966CAF7DAF8EAF9FAF2A97A5019401E0
:105240002E966CAD7DAD8EAD9FAD2E970F94B0694F
:105250002E966CAF7DAF8EAF9FAF2E972AA13BA14C
:105260004CA15DA1CA01B9010F946A6220E030E04F
:1052700040E05FE30F946A629B01AC0160E070E084
:1052800080E89FE30F94D3686AAF7BAF8CAF9DAF8C
:1052900026968CAD9DADAEADBFAD269789879A871A
:1052A000AB87BC8762962CAD3DAD4EAD5FAD6297CE
:1052B0002D873E874F87588B60916C0270916D02ED
:1052C000072E000C880B990B0F940B622091AF02F4
:1052D0003091B0024091B1025091B2020F946A62D3
:1052E0002AE037ED43E25CE30F946A6222966CAFEA
:1052F0007DAF8EAF9FAF22970E9447639B01AC01A9
:1053000028533F4F4F4F5F4F26962CAF3DAF4EAFC8
:105310005FAF26974A8C5B8C6C8C7D8C41E050E0B3
:105320005FA74EA759E15EA3AEA5BFA5A215B30521
:1053300009F412C10E94CFB70E944763DC01CB0180
:1053400026962CAD3DAD4EAD5FAD2697821B930BDF
:10535000A40BB50BB7FD10C00E9447639B01AC01C5
:1053600028533F4F4F4F5F4F26962CAF3DAF4EAF68
:105370005FAF26970F94B64D3EA131503EA3332325
:10538000E9F12AAD3BAD4CAD5DAD6E8D7F8D88A151
:1053900099A10F946A626B017C012AA13BA14CA1E7
:1053A0005DA1B201C3010F946A62A70196010F9437
:1053B000D4686B017C012AAD3BAD4CAD5DADB20153
:1053C000C3010F946A624B015C012AA13BA14CA16D
:1053D0005DA16E8D7F8D88A199A10F946A629B015A
:1053E000AC01C501B4010F94D3682B013C01C60187
:1053F000D7018E8F9F8FA8A3B9A351C04EA55FA5DB
:10540000BA0180E090E00F9409622AA13BA14CA16F
:105410005DA10F946A624B015C010F94AD696B0151
:105420007C01C501B4010F94CB6B4B015C01A7015A
:1054300096016A8D7B8D8C8D9D8D0F946A622B01F8
:105440003C01A50194016AA57BA58CA59DA50F949F
:105450006A629B01AC01C301B2010F94D4682B01B5
:105460003C01A50194016A8D7B8D8C8D9D8D0F94DF
:105470006A624B015C01A70196016AA57BA58CA518
:105480009DA50F946A629B01AC01C501B4010F9404
:10549000D3686E8F7F8F88A399A359E15EA3920191
:1054A000A3016AA97BA98CA99DA90F94D4686983DB
:1054B0007A838B839C832E8D3F8D48A159A16EA941
:1054C0007FA988AD99AD0F94D4686D837E838F8357
:1054D00098872A962CAD3DAD4EAD5FAD2A97698574
:1054E0007A858B859C850F94D46869877A878B87AA
:1054F0009C872E962CAD3DAD4EAD5FAD2E976D8544
:105500007E858F8598890F94D4686D877E878F8775
:10551000988B80911E02882321F0CE0101960E9473
:10552000CBD0C09065072296ECACFDAC0EAD1FADA4
:1055300022979E01235F3F4FAE01475F5F4FBE0141
:105540006B5F7F4FCE0101960E94EDE88EA59FA56F
:1055500001969FA78EA7E8CEC09065072296ECAC77
:10556000FDAC0EAD1FAD229724EF37E040EF57E0C2
:105570006CEE77E088EE97E00E94EDE80F94803DB6
:105580000E94B65A0C94643BE4E9FEE184918F01D9
:105590000F5F1F4F882321F00E94C15AF801F6CFF8
:1055A000E0EBF3E084918F010F5F1F4F882311F42C
:1055B0000C94643B0E94C15AF801F4CF0E94B1B52B
:1055C0000C94643B80E00E949BB20C94643B0E946C
:1055D00025F70C94643B81E080931C040C94643B9D
:1055E00085E40E942942B82E811102C00E94F1B9BF
:1055F0003EEC832E32E0932E44EDC42E47E0D42EB1
:105600005BE7E52E5FE0F52E00E010E0A12CF40151
:1056100081914F010E9429428823E1F1D6012D9109
:105620003D914D915C91AC962FAFAC97AD963FAF4D
:10563000AD97AE964FAFAE97AF965FAFAF970E9464
:10564000C341F6016083718382839383AC962FAD4F
:10565000AC97AD963FADAD97AE964FADAE97AF96CA
:105660005FADAF9703301105A9F00F94D3689B018C
:10567000AC01D7016D917D918D919C910F94D4686F
:10568000F7016083718382839383C8010E94C85AA3
:10569000AA24A3940F5F1F4FF4E0CF0ED11C24E087
:1056A000E20EF11C0430110509F0B1CFAA2019F067
:1056B0000E94156003C0B1100E94DD990F944A3416
:1056C0000C94643B80915702882311F40C94643B42
:1056D00089E40E942942F82E882321F00E949341F8
:1056E000162F01C010E08AE40E942942E82E882388
:1056F00031F00E949341062FF11004C00AC000E06F
:10570000FF20B1F0133010F40C94AF3FE6ECF3E05F
:1057100003C00330D8F70CC084918F010F5F1F4F77
:10572000882311F40C94643B0E94C15AF801F4CF11
:105730000F94763DFF20E1F034E0139FF001112437
:10574000EC5AF34E659175918591949120918A0759
:1057500030918B0740918C0750918D070F94D4683E
:105760006093E8077093E9078093EA079093EB074B
:10577000EE20E1F044E0049FF0011124EC5EF34ED2
:10578000659175918591949120918E0730918F0745
:1057900040919007509191070F94D4686093EC0763
:1057A0007093ED078093EE079093EF0780E50E94DA
:1057B000FA4181110E94B44186E40E942942882363
:1057C000D9F00E94C3416B017C0120E030E0A901C7
:1057D0000F94FB6A181684F420E030E040E752E4AE
:1057E000C701B6010F94B0696093AF027093B00225
:1057F0008093B1029093B2020F948A3D0C94643B63
:1058000080911D0490911E048237910509F4F9C618
:105810000CF0DEC08C34910509F44EC30CF059C075
:105820008931910509F492C21CF58431910509F47E
:105830006AC27CF48131910509F461C22CF40297AB
:1058400008F4D5C10C94643B429709F40CC60C943F
:10585000643B8631910509F45EC20CF458C287316D
:10586000910509F45EC2489709F465C20C94643B43
:105870008F31910509F4C9C294F48B31910509F473
:1058800071C20CF46BC28C31910509F4A7C24E971A
:1058900011F00C94643B0E94DDAF0C94643B8A329F
:1058A000910509F4DEC244F4809711F00C94643B36
:1058B0000E9498AF0C94643B8133910509F4D5C2E2
:1058C0008B34910511F00C94643B0E945A9A0C940D
:1058D000643B8836910509F40BC40CF04EC0823548
:1058E000910509F4B7C584F58E34910509F4EEC22B
:1058F0000CF4E8C28035910509F486C5813591051F
:1059000011F00C94643B0E9430CA0E94F1B90F94CC
:10591000564D10922B1410922A14109214041092C7
:1059200013041092120468EE73E080E090E00E948D
:10593000BC6A259A2D981092110260E085E695E0E8
:105940000E94936B0C94643B8435910509F48BC5DC
:105950000CF484C58535910509F4B8C58C359105DD
:1059600011F00C94643B1EECC12E12E0D12E0CEB16
:10597000E02E07E0F02E10E0C4C58D36910509F445
:10598000F7C49CF48A36910509F428C50CF4A8C420
:105990008B36910509F426C58C36910511F00C94CF
:1059A000643B109269020C94643B8F36910509F4B4
:1059B00009C40CF4F4C38037910509F46FC481372E
:1059C000910511F00C94643B0F941A360C94643BCF
:1059D000823E910511F40C94EF360CF07FC08E3BA3
:1059E000910509F4E1C4C4F58837910509F429C784
:1059F000CCF48537910509F499C644F483379105B1
:105A000011F00C94643BEDE4F6E001C68637910595
:105A100009F494C68737910511F00C94643BE2E3D6
:105A2000F7E08FC68C38910509F43CC45CF48937E3
:105A3000910511F00C94643B1092060210921F0A1B
:105A40000C94643B8139910509F401C78B399105A8
:105A500009F463C40C94643B8D3C910511F40C94DF
:105A60008D35ACF4893C910509F4AFC734F4883C1A
:105A7000910509F462C70C94643B8B3C910509F4D1
:105A8000C5C78C3C910509F4DEC70C94643B833D8B
:105A9000910511F40C943136ACF48E3C910511F063
:105AA0000C94643B9EECA92E92E0B92E24EDC22EFC
:105AB00027E0D22E30EBE32E34E0F32E00E010E0AE
:105AC0000C94F8358C3D910511F40C94C9368D3D3C
:105AD000910511F40C94D6360C94643B843A51E051
